:1000000063C0000088C0000086C00000F4C7000084
:10001000F2C70000F0C700007EC000007CC00000F6
:100020007AC0000078C0000076C0000074C00000F4
:1000300072C0000070C000006EC000006CC0000004
:10004000C2C5000068C0000044C3000074C30000C3
:1000500062C0000060C000005EC000005CC0000024
:100060005AC0000058C00000000000080002010053
:100070000003040700000000000000000102040863
:100080001020408001020408102001020408102002
:10009000040404040404040402020202020203032E
:1000A00003030303000000002300260029000000D2
:1000B0000000250028002B0000000000240027007D
:1000C0002A001802C903280211241FBECFEFD8E06E
:1000D000DEBFCDBF11E0A0E0B1E0E6E5F8E102C08F
:1000E00005900D92AA38B107D9F722E0AAE8B1E04D
:1000F00001C01D92A53AB207E1F710E0C6ECD0E0CE
:1001000004C02297FE010E94EA09C23CD107C9F748
:1001100050D50C941F0C74CF4F925F926F927F92C8
:100120008F929F92AF92BF92EF92FF920F931F9385
:10013000CF93DF9300D000D000D0CDB7DEB78C01D5
:100140007B015A0149016FE071E095D466E071E0EE
:10015000CE01019690D4B501CE01019600D5BC0127
:1001600087EB91E097D3CE0101961ED46FE071E04A
:1001700087EB91E0C6D3B501C701B3D36ED52B0190
:100180003C01AA2497FCA094BA2C67D56419750980
:1001900086099709681579058A059B0588F4C701C2
:1001A000C7D6892B91F3B701CE010196E6D3BE01E4
:1001B0006F5F7F4FC801BBD4CE010196F5D3EFCF5F
:1001C000F80184819581892B29F0B801CE0101962F
:1001D0007CD405C060E171E0CE0101964CD4BE0133
:1001E0006F5F7F4F87EB91E055D3CE010196DCD353
:1001F0006FE071E087EB91E084D3C80126960FB6DB
:10020000F894DEBF0FBECDBFDF91CF911F910F914C
:10021000FF90EF90BF90AF909F908F907F906F90E6
:100220005F904F9008958AE891E05FD78BEA91E064
:10023000BBD381EB91E0B8C3FC01DB0112968D9139
:100240009C9113979383828314964D915D916D9148
:100250007C911797448355836683778318964D91D5
:100260005D916D917C911B97408751876287738761
:100270008EE791E0918380831C968C911C978487F4
:100280001D968C911D9785871E968D919C911F9729
:100290009787868750968C915097808B51968D9139
:1002A0009C915297928B818B53968D919C915497F0
:1002B000948B838B55968C915597858B56968D9103
:1002C0009C915797978B868B58968D919C915997B7
:1002D000918F808F5A968D919C915B97938F828F8F
:1002E0005C968D919C915D97958F848F5E969C9185
:1002F0005E97868D90FB80F9868F5E969C91969591
:10030000917090FB81F9868F0895CF93DF93CDB7DD
:10031000DEB7E1970FB6F894DEBF0FBECDBF26E083
:1003200040E855E260E070E087EB91E072D140E098
:1003300052EC61E070E08AE891E059D761E087E033
:10034000FCD461E086E0F9D461E085E0F6D461E0B8
:1003500085E02CD565E271E0CE0186968CD36AE803
:1003600071E0CE01019668DF28E93AE3AE014A5D0B
:100370005F4FBE016F5F7F4FCE018096CDDECE0115
:10038000809612D3CE010196B0D6CE0186960CD3BC
:1003900061E371E0CE0186966ED361EB71E0CE0130
:1003A0008696DDD36CE371E0EBD36BEA71E0D7D3D3
:1003B0006EE371E0E5D3BC01CE01809686D36AE896
:1003C00071E0CE01019638DF28E93AE3AE01405EE4
:1003D0005F4FBE016F5F7F4FCE018C969DDECE01D9
:1003E000019683D6CE018096DFD2CE018696DCD2EE
:1003F00060E085E0DBD488A999A9892B49F081E0E8
:1004000090E09093AA018093A90161E087E002C087
:1004100061E086E0CBD4CE018C96C6D2E1960FB6D1
:10042000F894DEBF0FBECDBFDF91CF910895089540
:1004300060E471E081EB91E01ED369E471E08BEA46
:1004400091E019D320E04CE06BE08AE891E0A1C68E
:10045000EACEFC01818D228D90E0805C9F4F821B53
:1004600091098F7399270895FC01918D828D9817BA
:1004700031F0828DE80FF11D858D90E008958FEFAA
:100480009FEF0895FC01918D828D981761F0828D08
:10049000DF01A80FB11D5D968C91928D9F5F9F73B8
:1004A000928F90E008958FEF9FEF089580EC93E096
:1004B000892B41F080E090E0892B21F061D18111FE
:1004C0000C9400000895FC01848DDF01A80FB11D7C
:1004D000A35ABF4F2C91848D90E001968F7399277A
:1004E000848FA689B7892C93A089B1898C91806467
:1004F0008C93938D848D981306C00288F389E02D28
:1005000080818F7D80830895CF93DF93EC01888D68
:100510008823C1F0EA89FB89808185FD05C0A8890F
:10052000B9898C9186FD0EC00FB607FCF5CF80818E
:1005300085FFF2CFA889B9898C9185FFEDCFCE01D7
:10054000C2DFE8CFDF91CF910895CF92DF92FF9283
:100550000F931F93CF93DF931F92CDB7DEB76C013C
:10056000DC015B969C915B975C968C915C979813F1
:1005700007C05096ED91FC915197808185FD31C067
:10058000F601038D10E00F5F1F4F0F731127F02E40
:10059000F601848DF81210C00FB607FCF9CFD60112
:1005A0005096ED91FC915197808185FFF1CFC60166
:1005B000698389DF6981ECCF838DE80FF11DE35AF0
:1005C000FF4F6083D6015B960C935B975296ED913B
:1005D000FC91539780818062808381E058968C9350
:1005E0000DC0D6015696ED91FC91579760835096B9
:1005F000ED91FC91519780818064808381E090E04F
:100600000F90DF91CF911F910F91FF90DF90CF90CE
:100610000895BF92CF92DF92EF92FF92CF93DF9334
:10062000EC016A017B01B22EE889F98982E08083BE
:10063000411581EE58076105710599F060E079E098
:100640008DE390E0A701960171D62150310941094F
:1006500051095695479537952795211580E138071B
:1006600090F0E889F989108260E874E88EE190E002
:10067000A70196015BD621503109410951095695D0
:10068000479537952795EC85FD853083EE85FF8569
:100690002083188EEC89FD89B082EA89FB898081EC
:1006A00080618083EA89FB89808188608083EA8910
:1006B000FB89808180688083EA89FB8980818F7DC6
:1006C0008083DF91CF91FF90EF90DF90CF90BF902C
:1006D00008951F920F920FB60F9211242F938F93AC
:1006E0009F93EF93FF93E091C701F091C801808140
:1006F000E091CD01F091CE0182FD12C090818091F8
:10070000D0018F5F8F732091D101821751F0E0915A
:10071000D001F0E0E954FE4F958F8093D00101C0E5
:100720008081FF91EF919F918F912F910F900FBE3C
:100730000F901F9018951F920F920FB60F921124D1
:100740002F933F934F935F936F937F938F939F93D9
:10075000AF93BF93EF93FF9387EB91E0B4DEFF91EC
:10076000EF91BF91AF919F918F917F916F915F9129
:100770004F913F912F910F900FBE0F901F901895A2
:1007800087EB91E066DE21E0892B09F420E0822FDF
:1007900008951092BA011092B90188EE93E0A0E09A
:1007A000B0E08093BB019093BC01A093BD01B093D6
:1007B000BE018EE691E09093B8018093B70185EC7D
:1007C00090E09093C4018093C30184EC90E09093F7
:1007D000C6018093C50180EC90E09093C80180939E
:1007E000C70181EC90E09093CA018093C90182EC2B
:1007F00090E09093CC018093CB0186EC90E09093B5
:10080000CE018093CD011092D0011092D1011092AF
:10081000D2011092D3010895CF92DF92EF92FF920E
:100820000F931F93CF93DF936C017A01EB01E60ED8
:10083000F71E00E010E0CE15DF0561F06991D601EA
:10084000ED91FC910190F081E02DC6010995080F12
:10085000191FF1CFC801DF91CF911F910F91FF9028
:10086000EF90DF90CF9008956115710581F0DB0165
:100870000D900020E9F7AD0141505109461B570B7F
:10088000DC01ED91FC910280F381E02D099480E080
:1008900090E00895DC01ED91FC91DB0114964D91FF
:1008A0005C9115976D917C910280F381E02D099404
:1008B000DC01ED91FC910190F081E02D09940F9302
:1008C0001F93CF93DF93EC016DE0F2DF8C016AE0C0
:1008D000CE01EEDF800F911FDF91CF911F910F911D
:1008E00008950F931F93CF93DF93EC01D3DF8C0117
:1008F000CE01E5DF800F911FDF91CF911F910F9106
:1009000008950F931F93CF93DF93EC01ADDF8C011C
:10091000CE01D5DF800F911FDF91CF911F910F91F5
:1009200008950F931F93CF93DF93EC0196D16887BF
:1009300079878A879B87E881F9810680F781E02D96
:10094000CE01099597FF14C088D1088519852A859D
:100950003B85601B710B820B930B0C811D812E81DB
:100960003F81601771078207930728F38FEF9FEF8E
:10097000DF91CF911F910F9108950F931F93CF9304
:10098000DF93EC018B016FE071E075D0C801C9DF26
:1009900097FD04C0682FCE01D0D0F8CFCE01DF91F3
:1009A000CF911F910F910895FC0180819181AEC577
:1009B000CF93DF93EC0188819981009709F0A6D548
:1009C000198218821D821C821B821A82DF91CF91AC
:1009D00008950F931F93CF93DF93EC018B016F5F0B
:1009E0007F4F8881998121D6009731F09983888340
:1009F0001B830A8381E001C080E0DF91CF911F91CA
:100A00000F910895CF93DF93EC0188819981892B11
:100A100029F08A819B818617970758F4CE01D9DF88
:100A2000882341F08C819D81892B19F4E881F9811B
:100A3000108281E0DF91CF910895EF92FF920F93A2
:100A40001F93CF93DF93EC017B018A01BA01DADFB8
:100A5000811103C0CE01ACDF06C01D830C83B7013A
:100A600088819981AED6CE01DF91CF911F910F91F0
:100A7000FF90EF900895FC01118210821382128280
:100A8000158214826115710551F0FB01019000205F
:100A9000E9F7AF0141505109461B570BCECF0895DE
:100AA000CF93DF93EC01FB018617970751F060812C
:100AB00071816115710521F044815581BEDF01C04E
:100AC00077DFCE01DF91CF910895FC011182108272
:100AD0001382128215821482E3CFEF92FF920F935A
:100AE0001F93CF93DF93EC017B010C811D81611576
:100AF000710511F480E014C04115510581F0040F17
:100B0000151FB8017FDF8823A9F3288139818C81E3
:100B10009D81B701820F931F54D61D830C8381E002
:100B2000DF91CF911F910F91FF90EF900895FB01FE
:100B30004481558160817181D0CFCF93DF9300D004
:100B4000CDB7DEB769831A8241E050E0BE016F5F26
:100B50007F4FC3DF0F900F90DF91CF910895CF9318
:100B6000DF93EC01FB014481558160817181B5DF28
:100B7000811102C0CE011CDFCE01DF91CF9108951B
:100B8000CF93DF93EC016115710561F0FB010190DA
:100B90000020E9F7AF0141505109461B570B9DDF7B
:100BA000811102C0CE0104DFCE01DF91CF91089503
:100BB00008955FD0FDDFA9DBC6E5D2E038DC2097E1
:100BC000E9F374DCFBCF1F920F920FB60F92112442
:100BD0002F933F938F939F93AF93BF938091550231
:100BE00090915602A0915702B09158023091540250
:100BF00023E0230F2D3720F40196A11DB11D05C060
:100C000026E8230F0296A11DB11D20935402809364
:100C1000550290935602A0935702B09358028091C8
:100C2000590290915A02A0915B02B0915C02019628
:100C3000A11DB11D8093590290935A02A0935B02AB
:100C4000B0935C02BF91AF919F918F913F912F9193
:100C50000F900FBE0F901F9018952FB7F8946091CA
:100C600055027091560280915702909158022FBF01
:100C70000895789484B5826084BD84B5816084BD14
:100C800085B5826085BD85B5816085BDEEE6F0E005
:100C9000808181608083E1E8F0E010828081826061
:100CA0008083808181608083E0E8F0E080818160E2
:100CB0008083E1EBF0E0808184608083E0EBF0E012
:100CC000808181608083EAE7F0E0808184608083B6
:100CD0008081826080838081816080838081806860
:100CE00080831092C1000895833081F028F4813010
:100CF00099F08230A1F008958730A9F08830B9F0DA
:100D00008430D1F4809180008F7D03C08091800079
:100D10008F7780938000089584B58F7702C084B563
:100D20008F7D84BD08958091B0008F7703C080913E
:100D3000B0008F7D8093B0000895CF93DF9390E053
:100D4000FC01E458FF4F2491FC01E057FF4F8491D0
:100D5000882349F190E0880F991FFC01E854FF4F68
:100D6000A591B49182559F4FFC01C591D4919FB735
:100D7000611108C0F8948C91209582238C9388810E
:100D800082230AC0623051F4F8948C91322F30954E
:100D900083238C938881822B888304C0F8948C9160
:100DA000822B8C939FBFDF91CF9108950F931F9358
:100DB000CF93DF931F92CDB7DEB7282F30E0F90134
:100DC000E859FF4F8491F901E458FF4F1491F9015C
:100DD000E057FF4F04910023C1F0882319F0698385
:100DE00083DF6981E02FF0E0EE0FFF1FE255FF4F38
:100DF000A591B4919FB7F8948C91611103C010959F
:100E0000812301C0812B8C939FBF0F90DF91CF91E5
:100E10001F910F91089520919F023091A0022817F1
:100E20003907B9F490915D0280915E02981789F0BC
:100E3000E0915D02F0E0E15AFD4F808120915D027A
:100E400030E02F5F3F4F2F73332720935D0290E0F8
:100E500008958FEF9FEF08951F93CF93DF93DC01E9
:100E60005C968D919C915D97009749F481E090E0AC
:100E700013969C938E93129780E090E03BC051961E
:100E8000ED91FC91529750962C915097322F3095BE
:100E90001FB75E964C915E9741FB772770F941FD35
:100EA0006095F8944081772311F0422B01C04323D1
:100EB0004083EC012197F1F748E0508160FF02C0C8
:100EC000522B01C053235083EC012197F1F7669513
:100ED000415099F78081772311F0832301C0822B41
:100EE00080831FBF5C968D919C915D970197F1F770
:100EF00081E090E0DF91CF911F91089520919F02B2
:100F00003091A0022817390781F490915D028091F9
:100F10005E02981751F0E0915D02F0E0E15AFD4F5A
:100F20008081992787FD909508958FEF9FEF089511
:100F300020919F023091A0022817390761F4809117
:100F40005E0220915D0290E0805C9F4F821B9109C0
:100F500060E470E0D8C180E090E0089520919F02A5
:100F60003091A0022817390739F48FB7F8941092FE
:100F70005E0210925D028FBF0895E0919F02F09192
:100F8000A002E817F90769F4A389B4899C918589BF
:100F9000809589238C931092A00210929F0281E089
:100FA000089580E00895CF93DF93EC018A8D9B8DA7
:100FB000892BE9F080919F029091A0028C179D07E8
:100FC000B1F0009709F0D9DF8E8D8E7F8E8F109251
:100FD0005E0210925D02D093A002C0939F02EB8943
:100FE000FC8980819D89892B808381E001C080E01C
:100FF000DF91CF9108951F920F920FB60F92112497
:101000002F933F934F935F936F937F938F939F9310
:10101000AF93BF93EF93FF93E0919F02F091A002F3
:10102000309709F451C0868DA685B785958581FFD7
:1010300004C08C91892329F447C08C91892309F03D
:1010400043C0A389B4899C918589809589238C9319
:10105000868997890197F1F7208D318DA685B7850F
:10106000758558E040E0C9010197F1F7842F90E0C1
:1010700095958795482F6C91672309F040685150EA
:1010800091F7868D81FD409580915E0290E00196FA
:101090008F73992720915D02281749F0A0915E0275
:1010A000B0E0A15ABD4F4C9380935E0203C0868D81
:1010B0008160868F828D938D0197F1F7A389B48922
:1010C0008C919589892B8C93FF91EF91BF91AF9172
:1010D0009F918F917F916F915F914F913F912F9150
:1010E0000F900FBE0F901F9018952EE731E0FC0176
:1010F0003183208342CF1F93CF93DF93EC01162FD0
:101100006E8D6695617081E06827812F4FDE61E00A
:10111000812F13DE812F90E0FC01E458FF4FE49112
:10112000E88BFC01E057FF4FE491F0E0EE0FFF1F6A
:10113000E255FF4F859194919A8B898BDF91CF91E6
:101140001F9108951F93CF93DF93EC01162F60E05A
:10115000812FF3DD8E8D81FD03C061E0812F26DEBE
:101160001C87812F90E0FC01E458FF4FE491ED874C
:10117000FC01E057FF4FE491F0E0EE0FFF1FEC554C
:10118000FF4F859194919F878E87DF91CF911F911B
:101190000895FF920F931F93CF93DF93EC01F62EE8
:1011A000522F1B821A8208EE13E020E030E00C83FD
:1011B0001D832E833F838EE791E0998388831F8A66
:1011C0001E8A198E188E1B8E1A8E1D8E1C8E8E8D69
:1011D0008E7F50FB81F98E8F642FCE018CDF6F2DB7
:1011E000CE01DF91CF911F910F91FF90ABCFCF93A5
:1011F000DF93EC019A01AB011B8E1A8E198E188EAB
:101200001F8A1E8A60E079E08DE390E0B1D0C901C9
:101210002430310520F0B9016350710902C061E04A
:1012200070E07D8F6C8FEC85E63108F068C0B90105
:10123000769567956431710518F06351710902C0A4
:1012400061E070E07F8B6E8B069718F0C9010597FF
:1012500002C081E090E0998F888FC901880F991FA3
:10126000820F931F96958795969587958D3091055A
:1012700010F00C9702C081E090E09B8F8A8F209144
:101280006800E83050F091E0EE3008F490E081E042
:1012900001C0880F9A95EAF701C084E0822B809301
:1012A00068002C85283038F02E3040F0263148F484
:1012B0008CE690E008C08DE690E005C08BE690E0FB
:1012C00002C080E090E09C8B8B8B283030F481E072
:1012D00001C0880F2A95EAF70DC0822F90E02E30CA
:1012E00010F4089701C00E9791E001C0990F8A95FC
:1012F000EAF7892F8D8B8C8D9D8D0197F1F7CE01AB
:10130000DF91CF9150CE97FB072E16F4009406D0B4
:1013100077FD08D049D007FC05D03EF49095819523
:101320009F4F0895709561957F4F0895A1E21A2E01
:10133000AA1BBB1BFD010DC0AA1FBB1FEE1FFF1F79
:10134000A217B307E407F50720F0A21BB30BE40BC9
:10135000F50B661F771F881F991F1A9469F7609510
:101360007095809590959B01AC01BD01CF010895CA
:10137000052E97FB16F400940FD057FD05D0D6DF4D
:1013800007FC02D046F408C0509540953095219551
:101390003F4F4F4F5F4F08959095809570956195A1
:1013A0007F4F8F4F9F4F0895AA1BBB1B51E107C072
:1013B000AA1FBB1FA617B70710F0A61BB70B881FE5
:1013C000991F5A95A9F780959095BC01CD01089574
:1013D000EE0FFF1F0590F491E02D0994CF93DF935A
:1013E0008230910510F482E090E0E091A302F09148
:1013F000A40220E030E0A0E0B0E0309739F1408175
:10140000518148175907B8F04817590771F482817C
:101410009381109729F013969C938E9312972CC06A
:101420009093A4028093A30227C02115310531F0C7
:101430004217530718F0A901DB0101C0EF019A011F
:10144000BD01DF010280F381E02DD7CF21153105E9
:10145000F9F0281B390B2430310580F48A819B81F7
:101460006115710521F0FB019383828304C0909381
:10147000A4028093A302FE01329644C0FE01E20F53
:10148000F31F8193919322503109398328833AC005
:101490002091A1023091A202232B41F4209102015C
:1014A000309103013093A2022093A1022091000108
:1014B000309101012115310541F42DB73EB740911E
:1014C000040150910501241B350BE091A102F0911C
:1014D000A202E217F307A0F42E1B3F0B28173907CF
:1014E00078F0AC014E5F5F4F2417350748F04E0F80
:1014F0005F1F5093A2024093A1028193919302C077
:10150000E0E0F0E0CF01DF91CF910895CF93DF933A
:10151000009709F487C0FC01329713821282C091B0
:10152000A302D091A402209781F420813181280F59
:10153000391F8091A1029091A2028217930779F539
:10154000F093A202E093A1026DC0DE0120E030E042
:10155000AE17BF0750F412964D915C9113979D0101
:101560004115510509F1DA01F3CFB383A28340811C
:101570005181840F951F8A179B0771F48D919C915F
:101580001197840F951F02969183808312968D91F7
:101590009C911397938382832115310529F4F0934D
:1015A000A402E093A3023EC0D9011396FC93EE93EC
:1015B00012974D915D91A40FB51FEA17FB0779F4BF
:1015C00080819181840F951F0296D90111969C9379
:1015D0008E938281938113969C938E931297E0E071
:1015E000F0E08A819B81009719F0FE01EC01F9CFB0
:1015F000CE01029628813981820F931F2091A1028A
:101600003091A2022817390769F4309729F4109213
:10161000A4021092A30202C013821282D093A202EB
:10162000C093A102DF91CF910895A0E0B0E0EAE17C
:10163000FBE0D2C0EC01CB01209711F4CFDEB4C0A7
:10164000FE01E60FF71F9E0122503109E217F30752
:1016500008F4A8C0D9010D911C911197061717071E
:10166000B0F00530110508F49BC0A80144505109A1
:101670004617570708F494C002501109061B170BB0
:10168000019311936D937C93CF0140DF89C05B017F
:10169000A01AB10A4E01800E911EA091A302B09132
:1016A000A402612C712C60E070E0109709F449C02D
:1016B000A815B905C9F5ED90FC901197670142E0B6
:1016C000C40ED11CCA14DB0478F147018A189B08A8
:1016D000640142E0C40ED11C1296BC90129713967E
:1016E000AC91B5E0CB16D10440F0B282A3839182D5
:1016F0008082D9018D939C9309C00E5F1F4F0E0D00
:101700001F1DF90111830083EB2DFA2F611571055F
:1017100031F0DB011396FC93EE93129741C0F093E6
:10172000A402E093A3023CC06D917C9111976616D0
:10173000770608F43B01BD0112960D90BC91A02DD7
:10174000B4CF6091A1027091A20268157905E9F405
:1017500068167906D0F440910001509101014115BD
:10176000510541F44DB75EB76091040170910501D8
:10177000461B570BE417F507A8F4F093A202E09379
:10178000A102F901918380830BC028DE7C010097C0
:1017900049F0A801BE010CD0CE01B8DEC70104C0DB
:1017A000CE0102C080E090E0CDB7DEB7EEE030C001
:1017B000FB01DC0102C001900D9241505040D8F76E
:1017C0000895FB01DC0101900D920020E1F70895DE
:1017D0002F923F924F925F926F927F928F929F9241
:1017E000AF92BF92CF92DF92EF92FF920F931F932F
:1017F000CF93DF93CDB7DEB7CA1BDB0B0FB6F894E0
:10180000DEBF0FBECDBF09942A88398848885F841F
:101810006E847D848C849B84AA84B984C884DF8090
:10182000EE80FD800C811B81AA81B981CE0FD11D74
:101830000FB6F894DEBF0FBECDBFED01089510E0E6
:10184000C6ECD0E003C0FE01C5DD2296C83CD1073E
:06185000D1F7F894FFCF70
:101856000000A502800053454E44494E473A2000F9
:101866004E6F20726573706F6E7365207265636567
:10187600697665640041542B43574D4F44453D33CB
:101886000041542B43574A41503D2200222C22004E
:101896005A69726E69747261006361336564336597
:1018A6007A617361346170656A6163726562756BD2
:1018B6003466377564726562720000000000A50226
:1018C6000C042902420234028402000000002C07A4
:0A18D6000C0498070B077E07AE070D
:00000001FF
